:020000040800F2
:100000000803002005010008090100080B01000891
:100010000D0100080F010008110100080000000098
:1000200000000000000000000000000013010008B4
:100030001501000800000000170100081901000860
:100040001B0100081B0100081B0100081B01000820
:100050001B0100081B0100081B0100081B01000810
:100060001B0100081B0100081B0100081B01000800
:100070001B0100081B0100081B0100081B010008F0
:100080001B0100081B0100081B0100081B010008E0
:100090001B0100081B0100081B0100081B010008D0
:1000A0001B0100081B0100081B0100081B010008C0
:1000B0001B0100081B0100081B0100081B010008B0
:1000C0001B0100081B0100081B0100081B010008A0
:1000D0001B010008550500081B0100081B01000852
:1000E0001B0100081B0100081B010008DFF80CD0F1
:1000F00000F0FAFC00480047210100080803002036
:1001000030BF000005480047FEE7FEE7FEE7FEE7D8
:10011000FEE7FEE7FEE7FEE7FEE7FEE7ED0000088C
:100120002DE9F843092000F0ADF9482000F044F82B
:100130004FF41651482000F048FA00F0C7FA21E0C9
:1001400000F07DFB04461CB121460FA000F0DEFC50
:10015000062000F096FB0546052000F092FB0646BF
:10016000082000F08EFB0746072000F08AFB80463F
:1001700033463A4601460BA0009500F0C7FC3220FA
:1001800000F031F8DCE7000020200D0A20202025B7
:100190006420206973202070726573736564202069
:1001A0000D0A00002025356420253564202535649E
:1001B000202535640D0A00004FF0E021096921F087
:1001C00004014FF0E02211610146C21700EB5272A8
:1001D000D2101F4B1A70194609784FF47A725143A6
:1001E0009A1C118070471A4A921C128842434FF0A1
:1001F000E0235A6100229A6101221A6100BF4FF088
:10020000E022116911F0010F02D011F4803FF6D005
:1002100000224FF0E0231A619A6170470C4A12786D
:1002200042434FF0E0235A6100229A6101221A6191
:1002300000BF4FF0E022116911F0010F02D011F45C
:10024000803FF6D000224FF0E0231A619A61704798
:1002500000000020AC4A0A400243AC4B1A607047D1
:10026000072323EA00021202A84B1B1D19684FF650
:10027000FF031940A64B194311434FF0E023C3F885
:100280000C1D70472DE9F04704460D4616461F46E3
:100290003046F11706EB91714FEAA109F11706EB11
:1002A00091718910A6EB810101F0FF0A042101EB95
:1002B000CA0000F0FF0A3846FFF7D2FFC7F104007A
:1002C00004FA00F80F203841284040EA080808F0F6
:1002D0000F08202E09DA8F4800680121B140084339
:1002E0004FF0E021C1F800010BE08A48001D0168D1
:1002F000A6F120020120904001434FF0E020C0F819
:100300000411854850F8290008FA0AF1014382488F
:1003100040F82910BDE8F08770B50D46CE1701EB07
:100320009676B310CE1701EB9676B610A1EB860643
:10033000B606340E794DAD6945F00105774EB561CD
:100340004FEAB63555F823600F25A540AE43744DEE
:1003500045F8236055F8235000FA04F63543704EF3
:1003600046F823506F4D2E6801258D402E436C4D6D
:10037000083DC5F8006412F0010F09D0694D0C3535
:100380002E6801258D402E43654D083DC5F80C644F
:1003900012F0020F09D0634D08352E6801258D40FB
:1003A0002E435F4D083DC5F8086470BD00B50020C0
:1003B0005A490861C8601420486100208861C861FA
:1003C0000846006840F00100086008464068564949
:1003D00008405249486008460068544908404F495F
:1003E00008600846006820F48020086008464068DD
:1003F00020F4FE0048600020886000214FF000607B
:10040000FFF728FF00BD10B540480830006840F0F5
:1004100004004FF0E021C1F8100D4048C06940F0E1
:1004200080503E49C8614248406840F4807040496D
:1004300048600846006840F004000860084600680C
:1004400040F002000860FFF75BFE10BD3048001D61
:100450002E49091D086070470146084649062F4A83
:10046000926942F001022D4B9A612D4A083A526876
:1004700022F0E0622A4B083B5A601A4652680A434F
:100480005A60704730B504460025FFF78FFF2348B8
:10049000006840F480302149086000BF1F480068B0
:1004A000400CFBD04FF480601C494860A01EC4B2D1
:1004B0000846406840EA844048600846406840F486
:1004C000803048601B48006840F0320019490860DD
:1004D0001248006840F080701049086000BF0F4863
:1004E0000068400EFBD00D48406840F002000B4908
:1004F000486005E009484068C0F3870505F003053A
:10050000022DF7D130BD000080FFFF1F08ED00E095
:100510000000FA0500E100E000E400E00010024005
:1005200008000140000401400000FFF8FFFFF6FE54
:100530000070004000200240014600BF704700BF2D
:100540005A4A128812F0400FFAD0C2B2574B1B1D04
:100550001A8070475549098811F0200F34D053494B
:10056000091D0988C8B25249098811F4004F2BD1DE
:100570004F49098811F4804F0CD00A2803D000217C
:100580004B4A118020E04A49098841F40041484A19
:10059000118019E00D2806D14549098841F48041B0
:1005A000434A118010E042490988C1F30D01414AD4
:1005B00050543F490988491C3D4A11801146098819
:1005C000C72901DD0021118070472DE9F05F044645
:1005D0000D46280100F02BFA8146374904FB01F053
:1005E00000F025FA8246494600F0EBF9064630460F
:1005F00000F022FA87B2384600F019FA83463146F5
:1006000000F0A3F982464FF0834100F0A7F981463C
:1006100000F012FA80463F0107EB080087B2274836
:10062000806940F00400254988610846806940F4EB
:10063000804088612248006820F47F602149C1F829
:1006400004080846D0F8040840F40B60C1F8040818
:100650001A48C06840F480401849C8600846C0681D
:1006600020F48040C8601848A0F808780F480C3083
:10067000008842F20C0108431349A1F80C0808460F
:10068000B0F80C0840F48070A1F80C080846B0F8E7
:100690000C0840F0200005490C3108800223252277
:1006A00003210846FFF7EEFDBDE8F09F003801404A
:1006B000040000203000002040420F0000100240E3
:1006C0000408014000000140003001406F4880698B
:1006D00040F008006D4988616D48006820F4702082
:1006E0006C49C1F8040C0846D0F8040C40F4002012
:1006F000C1F8040C6548806940F0080063498861CE
:100700006448D0F8040CC0F313006249C1F8040C2B
:100710005F480068604908435E49C1F8040C7047AF
:1007200070B50546012400205C49487000BF25E0F3
:100730002C4203D001205A49086002E000205849A9
:10074000086001205649083108603220FFF766FD35
:1007500000205449C1F8BC013220FFF75FFD0120A1
:100760005049C1F8BC010846D0F8300120B14B48CF
:1007700040782043494948706004040CFF2CD7DDC1
:1007800070BD10B500204649091D0860464908782B
:10079000FFF7C6FF44494878FFF7C2FF01204149EF
:1007A000C1F8B8013D484078732801D1002010BD40
:1007B0000120FCE770B50025012400203849091DFF
:1007C000086039490878FFF7ABFF37494878FFF7E9
:1007D000A7FF022522E0012419E001203049083159
:1007E000086000202F49C1F8BC013220FFF716FD38
:1007F00001202C49C1F8BC010846D0F8300120B1D5
:100800002648405D2043254948556004040CFF2CD0
:10081000E3DD3220FFF702FD681CC5B2092DDADBEB
:1008200001201F49091D086070BD002004E000215F
:100830001A4A1154411CC8B20928F8DB704710B598
:10084000FFF7F3FFFFF7B6FF1448C07813490979A3
:1008500040EA01201549088000240EE0144830F8D1
:100860001400411E0120884010490988084202D125
:10087000601CC0B210BD601CC4B2102CEEDB0020A6
:10088000F8E701460548405C704700000010024050
:10089000040C01400000014000003033F80000204B
:1008A000B4812142008021420C0000202E00002053
:1008B0000E000020F0B4144620F0004621F0004164
:1008C00000F000428E4205D230460E4601460CB181
:1008D00082F0004219B946EA0200F0BC7047C6F344
:1008E000C753C1F3C7501D1AC6F3160040F40000E9
:1008F000202D14DAC1F3160141F40001002C21FA75
:1009000005F402D0A0EB040000E02044C5F120046F
:1009100001FA04F108D0494206D0401E04E014B1A7
:100920004FF0FF31F9E70121F0BC00F0B8B890EAD0
:10093000010201D5012200E00022BBE790EA01029A
:1009400001D5002200E00122B4E7034608465940E1
:1009500001D5002200E001221946ABE780EA01023E
:1009600010B502F00042400001D04B0001D1002040
:1009700010BD4FEA106101EB1361C0F35600C3F3E1
:10098000560340F4000043F40003A0FB03307F391A
:100990004FEA00401C0400D0401C50EA134001D430
:1009A0004000491EC3B20C0604EBD010401C4008A6
:1009B000802B01D120F00100002900DA0020104333
:1009C00010BDF0B480EA010230F0004302F00042B2
:1009D00021F0004000D010B9F0BC00207047C0F3F7
:1009E000C755C3F31601C3F3C756731BC0F31600F4
:1009F00040F400047E3341F400014FF08075002084
:100A0000A14201D3091B28436D084FEA4101F7D1E8
:100A100051B1A14202D14FF0004105E002D24FF0A6
:100A2000010101E06FF00101F0BC00F038B896233D
:100A30000022114600F033B820F00040C10DC0F391
:100A4000160040F400007F2901DA00207047962943
:100A500003DCC1F19601C840704796398840704761
:100A600030B50B46014600202022012409E021FA7E
:100A700002F59D4205D303FA02F5491B04FA02F57B
:100A80002844151EA2F10102F1DC30BD002905DA6F
:100A9000401CB1F1004F01D120F00100704730B48B
:100AA00050EA01040BD130BC0020704701F0010571
:100AB00045EA510141EAC07140085B1C01E04FF07A
:100AC0008074A042F2D24FF4000404E0400040EAF7
:100AD000D17049005B1EA042F8D300EBC350A0F5D3
:100AE000000030BC1044D1E7064C074D06E0E0683A
:100AF00040F0010394E8070098471034AC42F6D365
:100B0000FFF7F8FA980E0008B80E00080FB410B5F9
:100B100003A9044B044A029800F018F810BC5DF8D1
:100B200014FB00003F0500080800002002E008C890
:100B3000121F08C1002AFAD170477047002001E057
:100B400001C1121F002AFBD1704700002DE9FF4FA1
:100B50008DB005468846002667E125287ED1002411
:100B60006D1CB849A146A24601222B78203B02FA0F
:100B700003F0084202D004436D1CF6E728782A28C7
:100B800016D158F8049BB9F1000F03DA44F400546D
:100B9000C9F1000944F002046D1C10E009EB890062
:100BA00002EB400044F0020401EB00096D1C01E07F
:100BB0006FF02F022978A1F130000928EED92878AA
:100BC0002E2818D115F8010F44F004042A280BD15F
:100BD00058F804AB6D1C0EE00AEB8A0002EB4000F3
:100BE00001EB000A6D1C01E06FF02F022978A1F1E2
:100BF00030000928F0D928786C280ED008DC4C2861
:100C000016D068280CD06A2813D144F400140FE0E1
:100C100074280DD07A280CD10AE044F4801401E045
:100C200044F440146978814202D16D1C04F58014AB
:100C30006D1C2878692806D017DC002876D0632838
:100C400043D064288AD10A2758F8040BC4F3025110
:100C5000032900D100B2042902D100E0EDE040B246
:100C6000002871DA40422D2171E06E2810D07328DF
:100C700036D07528E6D10A2758F8040BC4F3025180
:100C8000032900D180B2042900D1C0B2002161E063
:100C9000C4F30250022806D1D8F80010F217C1E9B7
:100CA000006240460EE0032804D1D8F80010404608
:100CB0000E8007E00428D8F80010404601D10E70DD
:100CC00000E00E6000F10408AEE058F8041B8DF857
:100CD0002C1000208DF82D000DF12C0B012003E0CD
:100CE00058F804BB4FF0FF3061074FF000070AD5FA
:100CF00000E07F1C57450EDA8742FADB1BF807102D
:100D00000029F6D107E000E07F1C8742FCDB1BF8DE
:100D100007100029F8D1DDE90F23A9EB07092146C7
:100D2000484600F0A3F83044C61905E081E0DDE94B
:100D30000F121BF8010B90477F1EF8D2DDE90F233D
:100D4000214648466DE0FFE7210505D52B218DF8AA
:100D50000C100121019103E0E10797D02021F6E773
:100D60000DF1300B07E03946FFF77AFEABF10102D7
:100D70003031934611700028F5D104A9A1EB0B0086
:100D800020300290600702D524F4803401E04FF057
:100D9000010A029A0020924501DDAAEB0200824678
:100DA000019910440144A9EB01000C90E00306D422
:100DB000DDE90F2321460C9800F058F8064400277F
:100DC0000DF10C0906E0DDE90F1219F80700904754
:100DD000761C7F1C01988742F5DBE0030CD5DDE92A
:100DE0000F2321460C9800F041F8064404E0DDE9A9
:100DF0000F1230209047761CBAF10000AAF1010AC8
:100E0000F5DC05E0DDE90F121BF8010B9047761CBD
:100E10000298411E02910028F4DCDDE90F232146EF
:100E20000C9800F011F806446D1C287800287FF417
:100E300094AE304611B0BDE8F08FDDE90F12904757
:100E4000761CF1E7092801002DE9F0410446002550
:100E500017461E46880406D503E039462020B047D1
:100E60006D1C641EF9D52846BDE8F0812DE9F041DE
:100E700004460025302790461E46C80300D420278C
:100E8000880406D403E041463846B0476D1C641E12
:100E9000F9D52846BDE8F081B80E00080000002012
:100EA000300000002C0B0008E80E00083000002085
:100EB000D80200003C0B0008000000000000000009
:100EC00000000000014201000200030004000500D0
:100ED00006000700080009000A000B000C000D00C6
:080EE0000E000F0010000000DD
:04000005080000ED02
:00000001FF
