:020000040800F2
:100000000803002005010008090100080B01000891
:100010000D0100080F010008110100080000000098
:1000200000000000000000000000000013010008B4
:100030001501000800000000170100081901000860
:100040001B0100081B0100081B0100081B01000820
:100050001B0100081B0100081B0100081B01000810
:100060001B0100081B0100081B0100081B01000800
:100070001B0100081B0100081B0100081B010008F0
:100080001B0100081B0100081B0100081B010008E0
:100090001B0100081B0100081B0100081B010008D0
:1000A0001B0100081B0100081B0100081B010008C0
:1000B0001B0100081B0100081B0100081B010008B0
:1000C0001B0100081B0100081B0100081B010008A0
:1000D0001B010008F10500081B0100081B010008B6
:1000E0001B0100081B0100081B010008DFF80CD0F1
:1000F00000F07CFF004800472101000808030020B1
:1001000030BF000005480047FEE7FEE7FEE7FEE7D8
:10011000FEE7FEE7FEE7FEE7FEE7FEE7ED0000088C
:100120002DE9F04788B0092000F0FAF9482000F0E6
:1001300091F84FF41651482000F095FA00214FF441
:10014000617000F040FC00F00FFB00F02FFB00F0AE
:1001500021FC78E000F085FB00286AD1322000F015
:1001600090F800203849086000F0D9FB082000F022
:10017000F8FBA0F17F04B4F1000801DB414601E087
:10018000C8F10001084600F020FE82464FF086418B
:1001900000F071FD814600F076FECDE906010520F4
:1001A00000F0DFFBA0F18009484600F01DFECDE91C
:1001B000040126A00CC8049800F093FDCDE90201CB
:1001C000DDE9062300F08DFDCDE9000100F032FEEF
:1001D00007B2082000F0C5FBC0F17F00C0EBC004EF
:1001E000002C0DDD002F03DAE01905B226462AE0C7
:1001F0002546E01B06B23146284600F03BFC22E0D3
:10020000002C11DA002F07DAE01B05B22646314632
:10021000284600F02FFC16E02546E01906B23146CC
:10022000284600F027FC0EE00021084600F022FCE2
:1002300009E00120044908600021084600F01AFC8A
:10024000322000F01EF885E78881224266666666E5
:10025000666602404FF0E021096921F004014FF089
:10026000E02211610146C21700EB5272D2101F4BFF
:100270001A70194609784FF47A7251439A1C11800A
:1002800070471A4A921C128842434FF0E0235A6189
:1002900000229A6101221A6100BF4FF0E022116929
:1002A00011F0010F02D011F4803FF6D000224FF080
:1002B000E0231A619A6170470C4A127842434FF06A
:1002C000E0235A6100229A6101221A6100BF4FF0B7
:1002D000E022116911F0010F02D011F4803FF6D035
:1002E00000224FF0E0231A619A617047000000205D
:1002F000AC4A0A400243AC4B1A607047072323EA1A
:1003000000021202A84B1B1D19684FF6FF0319408B
:10031000A64B194311434FF0E023C3F80C1D70475F
:100320002DE9F04704460D4616461F463046F117A4
:1003300006EB91714FEAA109F11706EB9171891053
:10034000A6EB810101F0FF0A042101EBCA0000F0D5
:10035000FF0A3846FFF7D2FFC7F1040004FA00F89D
:100360000F203841284040EA080808F00F08202EE6
:1003700009DA8F4800680121B14008434FF0E021BD
:10038000C1F800010BE08A48001D0168A6F12002B7
:100390000120904001434FF0E020C0F8041185484F
:1003A00050F8290008FA0AF10143824840F8291060
:1003B000BDE8F08770B50D46CE1701EB9676B31009
:1003C000CE1701EB9676B610A1EB8606B606340E74
:1003D000794DAD6945F00105774EB5614FEAB63507
:1003E00055F823600F25A540AE43744D45F82360B2
:1003F00055F8235000FA04F63543704E46F8235062
:100400006F4D2E6801258D402E436C4D083DC5F87B
:10041000006412F0010F09D0694D0C352E680125DA
:100420008D402E43654D083DC5F80C6412F0020F57
:1004300009D0634D08352E6801258D402E435F4D50
:10044000083DC5F8086470BD00B500205A49086130
:10045000C8601420486100208861C86108460068AF
:1004600040F001000860084640685649084052497B
:10047000486008460068544908404F4908600846EB
:10048000006820F4802008600846406820F4FE00E0
:1004900048600020886000214FF00060FFF728FFCF
:1004A00000BD10B540480830006840F004004FF02F
:1004B000E021C1F8100D4048C06940F080503E492D
:1004C000C8614248406840F480704049486008462E
:1004D000006840F0040008600846006840F0020030
:1004E0000860FFF70DFE10BD3048001D2E49091DA4
:1004F000086070470146084649062F4A926942F053
:1005000001022D4B9A612D4A083A526822F0E062AE
:100510002A4B083B5A601A4652680A435A60704791
:1005200030B504460025FFF78FFF2348006840F4EC
:1005300080302149086000BF1F480068400CFBD094
:100540004FF480601C494860A01EC4B20846406851
:1005500040EA844048600846406840F48030486083
:100560001B48006840F032001949086012480068D2
:1005700040F080701049086000BF0F480068400ECE
:10058000FBD00D48406840F002000B49486005E090
:1005900009484068C0F3870505F00305022DF7D12F
:1005A00030BD000080FFFF1F08ED00E00000FA05ED
:1005B00000E100E000E400E000100240080001401B
:1005C000000401400000FFF8FFFFF6FE007000404D
:1005D00000200240014600BF704700BF5A4A1288FF
:1005E00012F0400FFAD0C2B2574B1B1D1A80704751
:1005F0005549098811F0200F34D05349091D098845
:10060000C8B25249098811F4004F2BD14F490988CB
:1006100011F4804F0CD00A2803D000214B4A1180DE
:1006200020E04A49098841F40041484A118019E014
:100630000D2806D14549098841F48041434A11807B
:1006400010E042490988C1F30D01414A50543F4925
:100650000988491C3D4A118011460988C72901DDD6
:100660000021118070472DE9F05F04460D462801F6
:1006700000F0B5FB8146374904FB01F000F0AFFB09
:100680008246494600F0F7FA0646304600F0BEFBC7
:1006900087B2384600F0A3FB8346314600F0AFFA3C
:1006A00082464FF0834100F0B3FA814600F0AEFB82
:1006B00080463F0107EB080087B22748806940F079
:1006C0000400254988610846806940F480408861BB
:1006D0002248006820F47F602149C1F804080846D8
:1006E000D0F8040840F40B60C1F804081A48C06848
:1006F00040F480401849C8600846C06820F4804033
:10070000C8601848A0F808780F480C30008842F2FA
:100710000C0108431349A1F80C080846B0F80C086E
:1007200040F48070A1F80C080846B0F80C0840F0BE
:10073000200005490C3108800223252203210846A8
:10074000FFF7EEFDBDE8F09F0038014004000020F7
:100750003000002040420F00001002400408014019
:1007600000000140003001400D48806940F0200049
:100770000B4988610B48006820F470600A49C1F891
:1007800000040846D0F8000440F44070C1F80004AA
:100790000846D0F80C0440F00400C1F80C0470477F
:1007A0000010024000140140001001406F488069B1
:1007B00040F008006D4988616D48006820F47020A1
:1007C0006C49C1F8040C0846D0F8040C40F4002031
:1007D000C1F8040C6548806940F0080063498861ED
:1007E0006448D0F8040CC0F313006249C1F8040C4B
:1007F0005F480068604908435E49C1F8040C7047CF
:1008000070B50546012400205C49487000BF25E012
:100810002C4203D001205A49086002E000205849C8
:10082000086001205649083108603220FFF744FD76
:1008300000205449C1F8BC013220FFF73DFD0120E2
:100840005049C1F8BC010846D0F8300120B14B48EE
:1008500040782043494948706004040CFF2CD7DDE0
:1008600070BD10B500204649091D0860464908784A
:10087000FFF7C6FF44494878FFF7C2FF012041490E
:10088000C1F8B8013D484078732801D1002010BD5F
:100890000120FCE770B50025012400203849091D1E
:1008A000086039490878FFF7ABFF37494878FFF708
:1008B000A7FF022522E0012419E001203049083178
:1008C000086000202F49C1F8BC013220FFF7F4FC7A
:1008D00001202C49C1F8BC010846D0F8300120B1F4
:1008E0002648405D2043254948556004040CFF2CF0
:1008F000E3DD3220FFF7E0FC681CC5B2092DDADB2E
:1009000001201F49091D086070BD002004E000217E
:100910001A4A1154411CC8B20928F8DB704710B5B7
:10092000FFF7F3FFFFF7B6FF1448C07813490979C2
:1009300040EA01201549088000240EE0144830F8F0
:100940001400411E0120884010490988084202D144
:10095000601CC0B210BD601CC4B2102CEEDB0020C5
:10096000F8E701460548405C70470000001002406F
:10097000040C01400000014000003033F80000206A
:10098000B4812142008021420C0000202E00002072
:100990000E0000206C48806940F010006A498861B0
:1009A0006A4800686FF30F006849086008460068ED
:1009B00043F233310843654908600846C06840F097
:1009C0000F00C8607047604AD26942F002025E4B75
:1009D000DA615F4A126822F07F425E4BC3F800285A
:1009E0001A46D2F8002842F03B42C3F800281A46C3
:1009F000D2F80C2842F0C002C3F80C289A03A2F8DF
:100A00002C04A2F82814B2F8182442F060029B03C8
:100A1000A3F818241A46B2F8182442F00802A3F8E2
:100A200018241A46B2F8182442F4C042A3F8182435
:100A30001A46B2F8182442F40062A3F818241A46A1
:100A4000B2F8202442F00102A3F820241A46B2F89A
:100A5000202442F01002404B1A808022D305A3F8D4
:100A60000024D205B2F8002442F001023A4B203BA8
:100A70001A80704730B500220023B0F5617F02DD97
:100A80004FF4617205E010F5617F01DA334A00E04E
:100A90000246B1F5617F02DD4FF4617305E011F5A7
:100AA000617F01DA2D4B00E00B465AB901242C4D31
:100AB0002C602C4DC5F884414FF46174264D1435DB
:100AC0002C8017E0002A0ADD0024254D2C6001242B
:100AD000244DC5F88441204D14352A800AE00124B4
:100AE0001F4D2C6000241F4DC5F8844154421A4DFF
:100AF00014352C8063B90124194D08352C60194D2B
:100B0000C5F88C414FF46174134D18352C8019E0F1
:100B1000002B0BDD0024124D08352C600124114DF3
:100B2000C5F88C410C4D18352B800BE001240C4D81
:100B300008352C6000240B4DC5F88C415C42064DF5
:100B400018352C8030BD000000100240001001401C
:100B50000008014000000140200400407CFCFFFF31
:100B60008001224200002242F0B4144620F00046E8
:100B700021F0004100F000428E4205D230460E4680
:100B800001460CB182F0004219B946EA0200F0BCFD
:100B90007047C6F3C753C1F3C7501D1AC6F31600FA
:100BA00040F40000202D14DAC1F3160141F40001D5
:100BB000002C21FA05F402D0A0EB040000E0204450
:100BC000C5F1200401FA04F108D0494206D0401EC4
:100BD00004E014B14FF0FF31F9E70121F0BC00F05F
:100BE0007CB990EA010201D5012200E00022BBE7B6
:100BF00090EA010201D5002200E00122B4E7034699
:100C00000846594001D5002200E001221946ABE711
:100C100080EA010210B502F00042400001D04B0012
:100C200001D1002010BD4FEA106101EB1361C0F348
:100C30005600C3F3560340F4000043F40003A0FB46
:100C400003307F394FEA00401C0400D0401C50EABA
:100C5000134001D44000491EC3B20C0604EBD0106F
:100C6000401C4008802B01D120F00100002900DA4F
:100C70000020104310BDF0B480EA010230F00043C0
:100C800002F0004221F0004000D010B9F0BC00207A
:100C90007047C0F3C755C3F31601C3F3C756731BA0
:100CA000C0F3160040F400047E3341F400014FF01D
:100CB00080750020A14201D3091B28436D084FEA2B
:100CC0004101F7D151B1A14202D14FF0004105E0FD
:100CD00002D24FF0010101E06FF00101F0BC00F021
:100CE000FCB82DE9FF4D144681EA030200208AB0CA
:100CF00002F00042CDE9080223F000460346024616
:100D00000A9821F0004585EA03015040084306D0C7
:100D1000002386EA030184EA0300084304D100208B
:100D200001460EB0BDE8F08DC5F30A51C6F30A5076
:100D300000270844A0F2F330C5F31302CDE90307FE
:100D400042F48015C6F3130242F48016BA46B84640
:100D5000BB46069725E0E00717D0049A0A9880184A
:100D6000024604900A9845EB0A0A121A7AEB050328
:100D700001D2012000E00020C11710EB0800069A04
:100D80007941801841EB0B0B069018EB08000A9A8A
:100D90007F4140EAD57890186D4176080A904FEA75
:100DA0003404002386EA030184EA03000843D2D115
:100DB000039BDDE90801CDE9000102935346594642
:100DC000049A069800F0C9F8ABE70022002802DA7E
:100DD00040424FF000429623002100F07EB8962357
:100DE0000022114600F079B80EB500210A4600280D
:100DF00002DA40424FF0004240F233438DE80E00E9
:100E000000231A4600F0A9F803B000BD20F000400E
:100E1000C10DC0F3160040F400007F2901DA002064
:100E20007047962903DCC1F19601C8407047963996
:100E30008840704770B501F0004621F000410A0D6E
:100E40000025C1F3130140F2FF3341F480119A42AF
:100E500001DA002070BD40F233439A42A2F23342DD
:100E600003DC524200F021F801E000FA02F0002316
:100E7000044686EA030185EA0300084301D0604284
:100E800070BD204670BD00F0004230F0004001D13E
:100E900001467047C30DC0F3160003F56073C10827
:100EA000400742EA035211437047202A04DB203AEC
:100EB00021FA02F000217047D040C2F1200301FA6C
:100EC00003F31843D1407047002905DA401CB1F103
:100ED000004F01D120F00100704730B450EA010406
:100EE0000BD130BC0020704701F0010545EA5101EB
:100EF00041EAC07140085B1C01E04FF08074A042E1
:100F0000F2D24FF4000404E0400040EAD1704900FE
:100F10005B1EA042F8D300EBC350A0F5000030BC2C
:100F20001044D1E7F0B504460D46002003F000411F
:100F30004140404017461E4608430BD0641C4FF00A
:100F4000004386EA030145F1000557EA010001D19B
:100F500024F0010420462946F0BD2DE9F00D884615
:100F60001D46194307460023104359405840099E27
:100F700014464FF0FF3A084311D1BDE8F00D014689
:100F80007047680804F0010242EA340440EAC77579
:100F90005FEA58084FEA370706F1010601E0DFF87B
:100FA00048B0BAEB07027BEB0803EAD34FF4801A90
:100FB00007E0FF1948EB080847EAD57724196D4187
:100FC000761E381E78EB0A01F3D33305A3F58013A0
:100FD000381C48EB0301DDE90723801859412B46F3
:100FE0002246BDE8F00D9DE7FFFF1F00064C074DB0
:100FF00006E0E06840F0010394E8070098471034E9
:10100000AC42F6D3FFF776F8301000085010000815
:1010100002E008C8121F08C1002AFAD170477047C1
:10102000002001E001C1121F002AFBD1704700001F
:1010300050100008000000203000000010100008D0
:101040008010000830000020D802000020100008A6
:10105000000000000000000000000000014201004C
:101060000200030004000500060007000800090054
:101070000A000B000C000D000E000F001000000015
:04000005080000ED02
:00000001FF
