:03000000020159A1
:0C015900787FE4F6D8FD758112020107E2
:090165000142000000000000004E
:1000E900D3EF9400EE940040147DA47C06ED1D70BE
:0D00F900011CED4C70F7EF1F70E61E80E358
:0101060022D6
:0E013D00759850759CFA758E91D2AFD2AC2297
:0E014B00C2ACC2998F993099FDC299D2AC22F4
:06012400C2B77F0A7E0055
:10012A00E4FDFCC3ED9FEC9E5008000DBD00010CE0
:02013A0080F152
:01013C0022A0
:0200C400AB0788
:1000C600E4FAEB30E004D2B58002C2B5EBC313FB11
:1000D6000000120124D2B77F0312012A0ABA08E2ED
:0200E600D2B591
:0100E80022F5
:02008B00AB07C1
:10008D007901E4F512FAEB30E004D2B58002C2B585
:10009D00EBC313FB000012012430B405E92512F562
:1000AD0012E925E0F9D2B77F037E0012012A0ABAC0
:0600BD0008D4D2B5AF1219
:0100C300221A
:10000300C2B6E4F511E51190016593FF12008B74FC
:10001300082511F8A6070511E511C3940940E6D296
:10002300B6E4F5117F3012014B7F7812014B74084F
:100033002511F8E6C4540FFFC3940A5005EF24308A
:10004300800B74082511F8E6C4540F2437FF1201FE
:100053004B74082511F8E6540FFFC3940A5005EFBB
:1000630024308005E6540F2437FF12014B7F201202
:10007300014B12014B0511E511C3940940A67F0DF5
:0800830012014B7F0A02014B40
:100107007FF47E011200E9C291D29075BB70120193
:0D0117003D1200037FF47E011200E980F428
:00000001FF
