:020000040800F2
:100000000803002005010008090100080B01000891
:100010000D0100080F010008110100080000000098
:1000200000000000000000000000000013010008B4
:100030001501000800000000170100081901000860
:100040001B0100081B0100081B0100081B01000820
:100050001B0100081B0100081B0100081B01000810
:100060001B0100081B0100081B0100081B01000800
:100070001B0100081B0100081B0100081B010008F0
:100080001B0100081B0100081B0100081B010008E0
:100090001B0100081B0100081B0100081B010008D0
:1000A0001B0100081B0100081B0100081B010008C0
:1000B0001B0100081B0100081B0100081B010008B0
:1000C0001B0100081B0100081B0100081B010008A0
:1000D0001B010008150500081B0100081B01000892
:1000E0001B0100081B0100081B010008DFF80CD0F1
:1000F00000F05AFD004800472101000808030020D5
:1001000030BF000005480047FEE7FEE7FEE7FEE7D8
:10011000FEE7FEE7FEE7FEE7FEE7FEE7ED0000088C
:1001200010B5092000F08EF9482000F025F84FF4B2
:100130001651482000F029FA00F010FC00F0A6FA51
:10014000472144F6206000F095FB13E000F04DFBE2
:1001500000F010FB052000F074FB052190FBF1F08E
:1001600000EB40000F30C4B2204600F0DAFB322032
:1001700000F019F8EAE700004FF0E021096921F0EA
:1001800004014FF0E02211610146C21700EB5272E8
:10019000D2101F4B1A70194609784FF47A725143E6
:1001A0009A1C118070471A4A921C128842434FF0E1
:1001B000E0235A6100229A6101221A6100BF4FF0C8
:1001C000E022116911F0010F02D011F4803FF6D046
:1001D00000224FF0E0231A619A6170470C4A1278AE
:1001E00042434FF0E0235A6100229A6101221A61D2
:1001F00000BF4FF0E022116911F0010F02D011F49D
:10020000803FF6D000224FF0E0231A619A617047D8
:1002100000000020AC4A0A400243AC4B1A60704711
:10022000072323EA00021202A84B1B1D19684FF690
:10023000FF031940A64B194311434FF0E023C3F8C5
:100240000C1D70472DE9F04704460D4616461F4623
:100250003046F11706EB91714FEAA109F11706EB51
:1002600091718910A6EB810101F0FF0A042101EBD5
:10027000CA0000F0FF0A3846FFF7D2FFC7F10400BA
:1002800004FA00F80F203841284040EA080808F036
:100290000F08202E09DA8F4800680121B140084379
:1002A0004FF0E021C1F800010BE08A48001D016811
:1002B000A6F120020120904001434FF0E020C0F859
:1002C0000411854850F8290008FA0AF101438248D0
:1002D00040F82910BDE8F08770B50D46CE1701EB48
:1002E0009676B310CE1701EB9676B610A1EB860684
:1002F000B606340E794DAD6945F00105774EB5610E
:100300004FEAB63555F823600F25A540AE43744D2E
:1003100045F8236055F8235000FA04F63543704E33
:1003200046F823506F4D2E6801258D402E436C4DAD
:10033000083DC5F8006412F0010F09D0694D0C3575
:100340002E6801258D402E43654D083DC5F80C648F
:1003500012F0020F09D0634D08352E6801258D403B
:100360002E435F4D083DC5F8086470BD00B5002000
:100370005A490861C8601420486100208861C8613A
:100380000846006840F00100086008464068564989
:1003900008405249486008460068544908404F499F
:1003A00008600846006820F480200860084640681D
:1003B00020F4FE0048600020886000214FF00060BB
:1003C000FFF728FF00BD10B540480830006840F036
:1003D00004004FF0E021C1F8100D4048C06940F022
:1003E00080503E49C8614248406840F480704049AE
:1003F00048600846006840F004000860084600684D
:1004000040F002000860FFF77BFE10BD3048001D81
:100410002E49091D086070470146084649062F4AC3
:10042000926942F001022D4B9A612D4A083A5268B6
:1004300022F0E0622A4B083B5A601A4652680A438F
:100440005A60704730B504460025FFF78FFF2348F8
:10045000006840F480302149086000BF1F480068F0
:10046000400CFBD04FF480601C494860A01EC4B211
:100470000846406840EA844048600846406840F4C6
:10048000803048601B48006840F03200194908601D
:100490001248006840F080701049086000BF0F48A3
:1004A0000068400EFBD00D48406840F002000B4948
:1004B000486005E009484068C0F3870505F003057A
:1004C000022DF7D130BD000080FFFF1F08ED00E0D6
:1004D0000000FA0500E100E000E400E00010024046
:1004E00008000140000401400000FFF8FFFFF6FE95
:1004F0000070004000200240014600BF704700BF6E
:100500005A4A128812F0400FFAD0C2B2574B1B1D44
:100510001A8070475549098811F0200F34D053498B
:10052000091D0988C8B25249098811F4004F2BD11E
:100530004F49098811F4804F0CD00A2803D00021BC
:100540004B4A118020E04A49098841F40041484A59
:10055000118019E00D2806D14549098841F48041F0
:10056000434A118010E042490988C1F30D01414A14
:1005700050543F490988491C3D4A11801146098859
:10058000C72901DD0021118070472DE9F05F044685
:100590000D46280100F0C1FA8146374904FB01F0FD
:1005A00000F0BBFA8246494600F081FA0646304622
:1005B00000F0B8FA87B2384600F0AFFA8346314609
:1005C00000F039FA82464FF0834100F03DFA81464F
:1005D00000F0A8FA80463F0107EB080087B22748E1
:1005E000806940F00400254988610846806940F42C
:1005F000804088612248006820F47F602149C1F86A
:1006000004080846D0F8040840F40B60C1F8040858
:100610001A48C06840F480401849C8600846C0685D
:1006200020F48040C8601848A0F808780F480C30C3
:10063000008842F20C0108431349A1F80C0808464F
:10064000B0F80C0840F48070A1F80C080846B0F827
:100650000C0840F0200005490C31088002232522B7
:1006600003210846FFF7EEFDBDE8F09F003801408A
:10067000040000203000002040420F000010024023
:100680000408014000000140003001406F488069CB
:1006900040F008006D4988616D48006820F47020C2
:1006A0006C49C1F8040C0846D0F8040C40F4002052
:1006B000C1F8040C6548806940F00800634988610E
:1006C0006448D0F8040CC0F313006249C1F8040C6C
:1006D0005F480068604908435E49C1F8040C7047F0
:1006E00070B50546012400205C49487000BF25E034
:1006F0002C4203D001205A49086002E000205849EA
:10070000086001205649083108603220FFF766FD75
:1007100000205449C1F8BC013220FFF75FFD0120E1
:100720005049C1F8BC010846D0F8300120B14B480F
:1007300040782043494948706004040CFF2CD7DD01
:1007400070BD10B500204649091D0860464908786B
:10075000FFF7C6FF44494878FFF7C2FF012041492F
:10076000C1F8B8013D484078732801D1002010BD80
:100770000120FCE770B50025012400203849091D3F
:10078000086039490878FFF7ABFF37494878FFF729
:10079000A7FF022522E0012419E001203049083199
:1007A000086000202F49C1F8BC013220FFF716FD78
:1007B00001202C49C1F8BC010846D0F8300120B115
:1007C0002648405D2043254948556004040CFF2C11
:1007D000E3DD3220FFF702FD681CC5B2092DDADB2C
:1007E00001201F49091D086070BD002004E00021A0
:1007F0001A4A1154411CC8B20928F8DB704710B5D9
:10080000FFF7F3FFFFF7B6FF1448C07813490979E3
:1008100040EA01201549088000240EE0144830F811
:100820001400411E0120884010490988084202D165
:10083000601CC0B210BD601CC4B2102CEEDB0020E6
:10084000F8E701460548405C704700000010024090
:10085000040C01400000014000003033F80000208B
:10086000B4812142008021420C0000202E00002093
:100870000E000020354AD26942F00402334BDA619F
:10088000334A126822F0FF02324BC3F8042C1A4696
:10089000D2F8042C42F0BB02C3F8042C1A46D2F85A
:1008A0000C2C42F44072C3F80C2C9A03A2F82C08CA
:1008B000A2F82818B2F81C2842F060029B03A3F8A3
:1008C0001C281A46B2F81C2842F00802A3F81C287B
:1008D0001A46B2F81C2842F4C042A3F81C281A4653
:1008E000B2F81C2842F40062A3F81C281A46B2F899
:1008F000202842F48072A3F820281A46B2F8202853
:1009000042F48052144B1A808022D305A3F80028A9
:10091000D205B2F8002842F001020F4B203B1A80AA
:10092000704700EB400202EBC00202F5FA710A4A7E
:100930001C321180704700EB400202EBC00202F54E
:10094000FA71054A20321180704700000010024001
:10095000040C014000000140200800400D4880695F
:1009600040F020000B4988610B48006820F470605B
:100970000A49C1F800040846D0F8000440F4407069
:10098000C1F800040846D0F80C0440F00400C1F897
:100990000C04704700100240001401400010014098
:1009A000F0B4144620F0004621F0004100F000426F
:1009B0008E4205D230460E4601460CB182F000420E
:1009C00019B946EA0200F0BC7047C6F3C753C1F339
:1009D000C7501D1AC6F3160040F40000202D14DA8B
:1009E000C1F3160141F40001002C21FA05F402D0F4
:1009F000A0EB040000E02044C5F1200401FA04F15A
:100A000008D0494206D0401E04E014B14FF0FF3137
:100A1000F9E70121F0BC00F0A2B890EA010201D58B
:100A2000012200E00022BBE790EA010201D500228A
:100A300000E00122B4E703460846594001D50022F0
:100A400000E001221946ABE780EA010210B502F08E
:100A50000042400001D04B0001D1002010BD4FEA00
:100A6000106101EB1361C0F35600C3F3560340F469
:100A7000000043F40003A0FB03307F394FEA00403D
:100A80001C0400D0401C50EA134001D44000491E11
:100A9000C3B20C0604EBD010401C4008802B01D1DF
:100AA00020F00100002900DA0020104310BDF0B44E
:100AB00080EA010230F0004302F0004221F00040E1
:100AC00000D010B9F0BC00207047C0F3C755C3F385
:100AD0001601C3F3C756731BC0F3160040F400049D
:100AE0007E3341F400014FF080750020A14201D314
:100AF000091B28436D084FEA4101F7D151B1A142CA
:100B000002D14FF0004105E002D24FF0010101E0B7
:100B10006FF00101F0BC00F022B8962300221146CC
:100B200000F01DB820F00040C10DC0F3160040F4E5
:100B300000007F2901DA00207047962903DCC1F10B
:100B40009601C8407047963988407047002905DAF9
:100B5000401CB1F1004F01D120F00100704730B4CA
:100B600050EA01040BD130BC0020704701F00105B0
:100B700045EA510141EAC07140085B1C01E04FF0B9
:100B80008074A042F2D24FF4000404E0400040EA36
:100B9000D17049005B1EA042F8D300EBC350A0F512
:100BA000000030BC1044D1E7064C074D06E0E06879
:100BB00040F0010394E8070098471034AC42F6D3A4
:100BC000FFF798FAEC0B00080C0C000802E008C8CC
:100BD000121F08C1002AFAD170477047002001E0B7
:100BE00001C1121F002AFBD1704700000C0C000845
:100BF0000000002030000000CC0B00083C0C000876
:100C000030000020D8020000DC0B000800000000CB
:100C1000000000000000000001420100020003008B
:100C20000400050006000700080009000A000B0088
:0C0C30000C000D000E000F001000000072
:04000005080000ED02
:00000001FF
